{
  "_format": "hh-sol-artifact-1",
  "contractName": "GameDay",
  "sourceName": "contracts/GameDay.sol",
  "abi": [
    {
      "anonymous": false,
      "inputs": [
        {
          "indexed": false,
          "internalType": "string",
          "name": "gameId",
          "type": "string"
        },
        {
          "indexed": false,
          "internalType": "address",
          "name": "creator",
          "type": "address"
        },
        {
          "indexed": false,
          "internalType": "uint256",
          "name": "betAmount",
          "type": "uint256"
        }
      ],
      "name": "GameCreated",
      "type": "event"
    },
    {
      "anonymous": false,
      "inputs": [
        {
          "indexed": false,
          "internalType": "string",
          "name": "gameId",
          "type": "string"
        },
        {
          "indexed": false,
          "internalType": "address",
          "name": "winner",
          "type": "address"
        },
        {
          "indexed": false,
          "internalType": "uint256",
          "name": "amount",
          "type": "uint256"
        }
      ],
      "name": "GameEnded",
      "type": "event"
    },
    {
      "anonymous": false,
      "inputs": [
        {
          "indexed": false,
          "internalType": "string",
          "name": "gameId",
          "type": "string"
        },
        {
          "indexed": false,
          "internalType": "address",
          "name": "joiner",
          "type": "address"
        }
      ],
      "name": "PlayerJoined",
      "type": "event"
    },
    {
      "inputs": [
        {
          "internalType": "string",
          "name": "gameId",
          "type": "string"
        }
      ],
      "name": "createGame",
      "outputs": [],
      "stateMutability": "payable",
      "type": "function"
    },
    {
      "inputs": [
        {
          "internalType": "string",
          "name": "gameId",
          "type": "string"
        },
        {
          "internalType": "address",
          "name": "winner",
          "type": "address"
        }
      ],
      "name": "endGame",
      "outputs": [],
      "stateMutability": "nonpayable",
      "type": "function"
    },
    {
      "inputs": [
        {
          "internalType": "string",
          "name": "",
          "type": "string"
        }
      ],
      "name": "games",
      "outputs": [
        {
          "internalType": "address",
          "name": "creator",
          "type": "address"
        },
        {
          "internalType": "address",
          "name": "joiner",
          "type": "address"
        },
        {
          "internalType": "uint256",
          "name": "betAmount",
          "type": "uint256"
        },
        {
          "internalType": "bool",
          "name": "isActive",
          "type": "bool"
        },
        {
          "internalType": "address",
          "name": "winner",
          "type": "address"
        }
      ],
      "stateMutability": "view",
      "type": "function"
    },
    {
      "inputs": [
        {
          "internalType": "string",
          "name": "gameId",
          "type": "string"
        }
      ],
      "name": "getGame",
      "outputs": [
        {
          "components": [
            {
              "internalType": "address",
              "name": "creator",
              "type": "address"
            },
            {
              "internalType": "address",
              "name": "joiner",
              "type": "address"
            },
            {
              "internalType": "uint256",
              "name": "betAmount",
              "type": "uint256"
            },
            {
              "internalType": "bool",
              "name": "isActive",
              "type": "bool"
            },
            {
              "internalType": "address",
              "name": "winner",
              "type": "address"
            }
          ],
          "internalType": "struct GameDay.Game",
          "name": "",
          "type": "tuple"
        }
      ],
      "stateMutability": "view",
      "type": "function"
    },
    {
      "inputs": [
        {
          "internalType": "string",
          "name": "gameId",
          "type": "string"
        }
      ],
      "name": "joinGame",
      "outputs": [],
      "stateMutability": "payable",
      "type": "function"
    }
  ],
  "bytecode": "0x608060405234801561001057600080fd5b50611419806100206000396000f3fe60806040526004361061004a5760003560e01c80632ebc05041461004f5780633d536a2e1461006b5780634d92f652146100875780636d20931a146100c45780637753af3e14610105575b600080fd5b61006960048036038101906100649190610c1d565b61012e565b005b61008560048036038101906100809190610c1d565b6103ac565b005b34801561009357600080fd5b506100ae60048036038101906100a99190610c1d565b610577565b6040516100bb9190610d43565b60405180910390f35b3480156100d057600080fd5b506100eb60048036038101906100e69190610c1d565b6106d6565b6040516100fc959493929190610d8b565b60405180910390f35b34801561011157600080fd5b5061012c60048036038101906101279190610e0a565b61078f565b005b60003411610171576040517f08c379a000000000000000000000000000000000000000000000000000000000815260040161016890610ee9565b60405180910390fd5b6000816040516101819190610f7a565b908152602001604051809103902060030160009054906101000a900460ff16156101e0576040517f08c379a00000000000000000000000000000000000000000000000000000000081526004016101d790610fdd565b60405180910390fd5b6040518060a001604052803373ffffffffffffffffffffffffffffffffffffffff168152602001600073ffffffffffffffffffffffffffffffffffffffff168152602001348152602001600115158152602001600073ffffffffffffffffffffffffffffffffffffffff1681525060008260405161025e9190610f7a565b908152602001604051809103902060008201518160000160006101000a81548173ffffffffffffffffffffffffffffffffffffffff021916908373ffffffffffffffffffffffffffffffffffffffff16021790555060208201518160010160006101000a81548173ffffffffffffffffffffffffffffffffffffffff021916908373ffffffffffffffffffffffffffffffffffffffff1602179055506040820151816002015560608201518160030160006101000a81548160ff02191690831515021790555060808201518160030160016101000a81548173ffffffffffffffffffffffffffffffffffffffff021916908373ffffffffffffffffffffffffffffffffffffffff1602179055509050507f132c99221e3a8bd54ab4759163b62794bddb60ad4f2dc5f1e3604a5fe03bae578133346040516103a193929190611036565b60405180910390a150565b600080826040516103bd9190610f7a565b908152602001604051809103902090508060030160009054906101000a900460ff1661041e576040517f08c379a0000000000000000000000000000000000000000000000000000000008152600401610415906110c0565b60405180910390fd5b600073ffffffffffffffffffffffffffffffffffffffff168160010160009054906101000a900473ffffffffffffffffffffffffffffffffffffffff1673ffffffffffffffffffffffffffffffffffffffff16146104b1576040517f08c379a00000000000000000000000000000000000000000000000000000000081526004016104a89061112c565b60405180910390fd5b806002015434146104f7576040517f08c379a00000000000000000000000000000000000000000000000000000000081526004016104ee90611198565b60405180910390fd5b338160010160006101000a81548173ffffffffffffffffffffffffffffffffffffffff021916908373ffffffffffffffffffffffffffffffffffffffff1602179055507f6426ed08b4816b27e58d721b4ff6fb44e6696b9d5ca257dcbd4b0576eb4dc539823360405161056b9291906111b8565b60405180910390a15050565b61057f610a50565b60008260405161058f9190610f7a565b90815260200160405180910390206040518060a00160405290816000820160009054906101000a900473ffffffffffffffffffffffffffffffffffffffff1673ffffffffffffffffffffffffffffffffffffffff1673ffffffffffffffffffffffffffffffffffffffff1681526020016001820160009054906101000a900473ffffffffffffffffffffffffffffffffffffffff1673ffffffffffffffffffffffffffffffffffffffff1673ffffffffffffffffffffffffffffffffffffffff168152602001600282015481526020016003820160009054906101000a900460ff161515151581526020016003820160019054906101000a900473ffffffffffffffffffffffffffffffffffffffff1673ffffffffffffffffffffffffffffffffffffffff1673ffffffffffffffffffffffffffffffffffffffff16815250509050919050565b6000818051602081018201805184825260208301602085012081835280955050505050506000915090508060000160009054906101000a900473ffffffffffffffffffffffffffffffffffffffff16908060010160009054906101000a900473ffffffffffffffffffffffffffffffffffffffff16908060020154908060030160009054906101000a900460ff16908060030160019054906101000a900473ffffffffffffffffffffffffffffffffffffffff16905085565b600080836040516107a09190610f7a565b908152602001604051809103902090508060030160009054906101000a900460ff16610801576040517f08c379a00000000000000000000000000000000000000000000000000000000081526004016107f890611234565b60405180910390fd5b8060000160009054906101000a900473ffffffffffffffffffffffffffffffffffffffff1673ffffffffffffffffffffffffffffffffffffffff168273ffffffffffffffffffffffffffffffffffffffff1614806108ae57508060010160009054906101000a900473ffffffffffffffffffffffffffffffffffffffff1673ffffffffffffffffffffffffffffffffffffffff168273ffffffffffffffffffffffffffffffffffffffff16145b6108ed576040517f08c379a00000000000000000000000000000000000000000000000000000000081526004016108e4906112a0565b60405180910390fd5b60006002826002015461090091906112ef565b905060008260030160006101000a81548160ff021916908315150217905550828260030160016101000a81548173ffffffffffffffffffffffffffffffffffffffff021916908373ffffffffffffffffffffffffffffffffffffffff16021790555060008373ffffffffffffffffffffffffffffffffffffffff168260405161098890611362565b60006040518083038185875af1925050503d80600081146109c5576040519150601f19603f3d011682016040523d82523d6000602084013e6109ca565b606091505b5050905080610a0e576040517f08c379a0000000000000000000000000000000000000000000000000000000008152600401610a05906113c3565b60405180910390fd5b7ffe19dffae58b26bebdf0f9362f64c6e305eda567dd06dec08adc7457f65c00ea858584604051610a4193929190611036565b60405180910390a15050505050565b6040518060a00160405280600073ffffffffffffffffffffffffffffffffffffffff168152602001600073ffffffffffffffffffffffffffffffffffffffff16815260200160008152602001600015158152602001600073ffffffffffffffffffffffffffffffffffffffff1681525090565b6000604051905090565b600080fd5b600080fd5b600080fd5b600080fd5b6000601f19601f8301169050919050565b7f4e487b7100000000000000000000000000000000000000000000000000000000600052604160045260246000fd5b610b2a82610ae1565b810181811067ffffffffffffffff82111715610b4957610b48610af2565b5b80604052505050565b6000610b5c610ac3565b9050610b688282610b21565b919050565b600067ffffffffffffffff821115610b8857610b87610af2565b5b610b9182610ae1565b9050602081019050919050565b82818337600083830152505050565b6000610bc0610bbb84610b6d565b610b52565b905082815260208101848484011115610bdc57610bdb610adc565b5b610be7848285610b9e565b509392505050565b600082601f830112610c0457610c03610ad7565b5b8135610c14848260208601610bad565b91505092915050565b600060208284031215610c3357610c32610acd565b5b600082013567ffffffffffffffff811115610c5157610c50610ad2565b5b610c5d84828501610bef565b91505092915050565b600073ffffffffffffffffffffffffffffffffffffffff82169050919050565b6000610c9182610c66565b9050919050565b610ca181610c86565b82525050565b6000819050919050565b610cba81610ca7565b82525050565b60008115159050919050565b610cd581610cc0565b82525050565b60a082016000820151610cf16000850182610c98565b506020820151610d046020850182610c98565b506040820151610d176040850182610cb1565b506060820151610d2a6060850182610ccc565b506080820151610d3d6080850182610c98565b50505050565b600060a082019050610d586000830184610cdb565b92915050565b610d6781610c86565b82525050565b610d7681610ca7565b82525050565b610d8581610cc0565b82525050565b600060a082019050610da06000830188610d5e565b610dad6020830187610d5e565b610dba6040830186610d6d565b610dc76060830185610d7c565b610dd46080830184610d5e565b9695505050505050565b610de781610c86565b8114610df257600080fd5b50565b600081359050610e0481610dde565b92915050565b60008060408385031215610e2157610e20610acd565b5b600083013567ffffffffffffffff811115610e3f57610e3e610ad2565b5b610e4b85828601610bef565b9250506020610e5c85828601610df5565b9150509250929050565b600082825260208201905092915050565b7f42657420616d6f756e74206d7573742062652067726561746572207468616e2060008201527f3000000000000000000000000000000000000000000000000000000000000000602082015250565b6000610ed3602183610e66565b9150610ede82610e77565b604082019050919050565b60006020820190508181036000830152610f0281610ec6565b9050919050565b600081519050919050565b600081905092915050565b60005b83811015610f3d578082015181840152602081019050610f22565b60008484015250505050565b6000610f5482610f09565b610f5e8185610f14565b9350610f6e818560208601610f1f565b80840191505092915050565b6000610f868284610f49565b915081905092915050565b7f47616d6520616c72656164792065786973747300000000000000000000000000600082015250565b6000610fc7601383610e66565b9150610fd282610f91565b602082019050919050565b60006020820190508181036000830152610ff681610fba565b9050919050565b600061100882610f09565b6110128185610e66565b9350611022818560208601610f1f565b61102b81610ae1565b840191505092915050565b600060608201905081810360008301526110508186610ffd565b905061105f6020830185610d5e565b61106c6040830184610d6d565b949350505050565b7f47616d6520646f6573206e6f7420657869737400000000000000000000000000600082015250565b60006110aa601383610e66565b91506110b582611074565b602082019050919050565b600060208201905081810360008301526110d98161109d565b9050919050565b7f47616d652069732066756c6c0000000000000000000000000000000000000000600082015250565b6000611116600c83610e66565b9150611121826110e0565b602082019050919050565b6000602082019050818103600083015261114581611109565b9050919050565b7f496e636f72726563742062657420616d6f756e74000000000000000000000000600082015250565b6000611182601483610e66565b915061118d8261114c565b602082019050919050565b600060208201905081810360008301526111b181611175565b9050919050565b600060408201905081810360008301526111d28185610ffd565b90506111e16020830184610d5e565b9392505050565b7f47616d65206973206e6f74206163746976650000000000000000000000000000600082015250565b600061121e601283610e66565b9150611229826111e8565b602082019050919050565b6000602082019050818103600083015261124d81611211565b9050919050565b7f496e76616c69642077696e6e6572000000000000000000000000000000000000600082015250565b600061128a600e83610e66565b915061129582611254565b602082019050919050565b600060208201905081810360008301526112b98161127d565b9050919050565b7f4e487b7100000000000000000000000000000000000000000000000000000000600052601160045260246000fd5b60006112fa82610ca7565b915061130583610ca7565b925082820261131381610ca7565b9150828204841483151761132a576113296112c0565b5b5092915050565b600081905092915050565b50565b600061134c600083611331565b91506113578261133c565b600082019050919050565b600061136d8261133f565b9150819050919050565b7f4661696c656420746f2073656e642077696e6e696e6773000000000000000000600082015250565b60006113ad601783610e66565b91506113b882611377565b602082019050919050565b600060208201905081810360008301526113dc816113a0565b905091905056fea26469706673582212209040f9cf7b02325215682bddfd96696174aa60b52399bb4de4d3c15433921d9c64736f6c63430008130033",
  "linkReferences": {},
  "deployedLinkReferences": {}
}